:100000000000012039020000910200003935000093
:100010009502000097020000990200000000000015
:100020000000000000000000000000009B02000033
:100030009D020000000000009F020000A1020000DD
:1000400069520000A7020000954F0000A54900007A
:10005000AD020000AF020000DD3E0000B302000070
:10006000B5020000B7020000B9020000BB020000A8
:10007000BD020000BF020000C1020000C302000078
:10008000C5020000092E0000C9020000CB020000DA
:10009000492E0000CF020000D1020000D302000070
:1000A000D5020000D7020000D9020000DB020000E8
:1000B000DD020000DF020000A3020000A302000036
:1000C000E1020000E3020000E5020000E702000098
:0C00D00045690000EB020000ED0200009A
:1000DC00354936480A1A02D0072291438D463449D5
:1000EC0034480A1A06D00722914381F30988022268
:1000FC0082F3148830483149314A00F044F83148D1
:10010C003149324A00F03FF831483249324A00F066
:10011C003AF832483249334A00F035F8324833491C
:10012C00334A00F030F833483349344A00F02BF8A6
:10013C0033483449344A00F026F834483449002214
:10014C0000F02CF833483449002200F027F83348EB
:10015C003349091A082902DB002202604160314A46
:10016C0090471F481F49884205D00268043003B4E9
:10017C00904703BCF7E700208646EC4600200021A0
:10018C00294A9047FEE7884207D0521A05D00378D7
:10019C0001300B700131013AF9D17047884202D01D
:1001AC0002700130FAE770470000012000F80020CF
:1001BC000000012000000120709401006C00002060
:1001CC0034030020F0020000F0020000B06D0100CA
:1001DC00709401006C0000206C000020646E010023
:1001EC00646E0100646E0100646E0100646E0100B7
:1001FC00646E0100646E0100646E01006F94010076
:10020C00389701003403002034030020340300200D
:10021C00D0290020D0290020D4290020D429002066
:10022C00D42B00205D02000085AA00000F484FF07F
:10023C000701884385460E4880470E48016841F403
:10024C0070010160BFF34F8FBFF36F8FFFF740BF9B
:10025C0009480A490A4A884207D0521A05D003783D
:10026C0001300B700131013AF9D1704700000120C7
:10027C00B955000088ED00E0F86D01000000002089
:10028C006C000020FEE7FEE7FEE7FEE7FEE7FEE778
:10029C00FEE7FEE7FEE7FEE7FEE7FEE7FEE7FEE72A
:1002AC00FEE7FEE7FEE7FEE7FEE7FEE7FEE7FEE71A
:1002BC00FEE7FEE7FEE7FEE7FEE7FEE7FEE7FEE70A
:1002CC00FEE7FEE7FEE7FEE7FEE7FEE7FEE7FEE7FA
:1002DC00FEE7FEE7FEE7FEE7FEE7FEE7FEE7FEE7EA
:0402EC00FEE700BF6A
:1002F00000487047C829002082B00190019B01226C
:100300005A7200BF02B0704700B583B04FF0FF33A0
:10031000019301F003F80421084800F07DFD0190ED
:10032000019B002B03DA0649412001F07CF90348C8
:10033000FFF7E2FF00BF03B05DF804FB6C00002094
:10034000646E010000B583B001900091019B1B68B1
:100350001B6800990198984700BF03B05DF804FB43
:1003600000B583B00190019B1B685B6801989847BA
:1003700000BF03B05DF804FB82B001900B468DF81E
:100380000330019B9DF803201A7200BF02B0704732
:1003900082B00190019B1B7A184602B0704782B070
:1003A0000190019B01225A7200BF02B0704782B0D7
:1003B0000190019B5B7A184602B0704710B487B079
:1003C00001900091019B009A53E8004F44EA02001B
:1003D00043E8000191F0000FF6D1059404900391D9
:1003E000049B184607B05DF8044B704710B487B003
:1003F00001900091019B009A53E8004F04EA02002B
:1004000043E8000191F0000FF6D1059404900391A8
:10041000059B184607B05DF8044B704700B583B0E4
:10042000019001210198FFF7C9FF0346184603B068
:100430005DF804FB00B583B0019000210198FFF73F
:10044000D5FF0346184603B05DF804FB00B587B03E
:1004500001901F4BFF229A601D4B00221A601C4B1B
:1004600000225A601A4B0022C3F81824184B0022AD
:10047000C3F81424164B002283F81C24154801F0FD
:10048000D9FD0490049B002B01D0049B1CE0124A70
:10049000124BD31ADB080393002305930FE0059A50
:1004A00013465B0013449B001A460D4B1344029302
:1004B000059B9AB2029B1A80059B01330593059A0E
:1004C000039B9A42EBD30023184607B05DF804FB68
:1004D00004040020086F0100F86D0100B06D0100F8
:1004E00000000020024A034BD31ADB08184670476D
:1004F000F86D0100B06D010000B587B001900B46AA
:100500008DF803309DF80330002B23D0FFF7EAFF6E
:1005100004900023059317E0059A13465B001344EB
:100520009B001A460E4B13440393039B5B881A46A9
:10053000019B1B689A4204D1019B059A1A60002313
:1005400009E0059B01330593059A049B9A42E3D386
:10055000052300E00023184607B05DF804FB00BF48
:100560000000002000B585B001900B468DF80330E7
:100570009DF8032001AB11461846FFF7BDFF034667
:10058000002B07D1019BDB00054A13440393039B17
:100590001B6800E00023184605B05DF804FB00BFAF
:1005A000B06D010084B001900B468DF80330019BC3
:1005B000DB00174A134402939DF80330013B032BE1
:1005C0001CD801A252F823F0D9050000E105000073
:1005D000E9050000F305000002238DF80F3011E05B
:1005E00004238DF80F300DE0029B1B798DF80F303E
:1005F00008E0029B5B798DF80F3003E000238DF853
:100600000F3000BF9DF80F30184604B0704700BF90
:10061000B06D010000B589B04148FFF7FFFE4148C9
:10062000FFF7FCFE404B5B6807933F4B9B680493CE
:10063000079A049B134002339B003B4A1344043344
:1006400006931BE0079B01330793069B5B88C3F36C
:1006500089139BB21A46069B1B88C3F389139BB26E
:1006600013441A46079B13440793079A049B1340AD
:1006700002339B002C4A134404330693069B1B78D9
:1006800003F00303DBB2002BDCD00023059311E061
:10069000079B5A1C0792049A1340059A92006946D8
:1006A0000A44214902339B000B445B681360059B9D
:1006B00001330593059B012BEAD99DF80030C3F364
:1006C0000103DBB2012B0CD0022B14D1BDF8023098
:1006D000C3F389139BB203339B08079A1344079310
:1006E0000FE0BDF80030C3F38313DBB21A46079B5B
:1006F0001344079305E00D4940F24D1000F093FFBD
:1007000000BF0848FFF796FE0390039B002B02D022
:10071000054A079B536000BF09B05DF804FB00BFAA
:100720001C08002018080020040400202C6F010081
:1007300010B586B00390029101920093039B1B0CAD
:10074000ADF81630BDF81640FFF7CCFE03469C42CC
:1007500004D323494FF4B27000F065FF009B5A1C8C
:10076000089B1340BDF816201E4902339B000B4422
:100770005A60009A089B134002339B00194A1344A5
:1007800004330493039B1B0903F00103D9B2049AB9
:10079000137861F382031370039B03F00703D9B24C
:1007A000049A137861F3C5031370019B03F00F03E0
:1007B000D9B2049A138861F389131380029BC3F39F
:1007C0001501049A136861F39F231360049A137848
:1007D000012161F30103137000BF06B010BD00BF1B
:1007E0002C6F01000404002000B589B00190009135
:1007F000019B023306930223059301238DF81330E6
:10080000002000F0C9FE214B1A68009B1A601F4BA4
:100810009A681E4B59681D4B1B68CB1A1344013351
:100820000793069A059B134403930BE0FFF7F2FE30
:10083000164B9A68154B5968144B1B68CB1A134416
:1008400001330793039A079B9A42EFD80F4B1A681C
:100850000E4B9B68134002339B000C4A1344043335
:100860000293029A137843F003031370074B1A683C
:10087000069B1344054A1360002000F0A1FE9DF87A
:100880001330184609B05DF804FB00BF04040020D3
:1008900000B58BB005900491039202931F4B9B68A7
:1008A000079306AB19460298FFF79EFF0346002BFD
:1008B00024D0069B023309930023089311E0089B80
:1008C0009B00039A1A44099B591C099107990B40F4
:1008D0001268124902339B000B445A60089B013393
:1008E0000893089A029B9A42E9D3069A079B0093C1
:1008F0001346029A04990598FFF71AFF074B93F8DD
:100900001C34002B05D000BF00F096F80346002BE6
:10091000FAD100BF0BB05DF804FB00BF0404002057
:1009200000B583B001900091002300220099019846
:10093000FFF7AEFF00BF03B05DF804FB00B587B062
:10094000039002910192019B059305AA012302994C
:100950000398FFF79DFF00BF07B05DF804FB00B5EB
:1009600087B00390029101920093019B0493009B36
:10097000059304AA022302990398FFF789FF00BF99
:1009800007B05DF804FB00B589B0039002910192B5
:100990000093019B0593009B06930A9B079305AA6E
:1009A000032302990398FFF773FF00BF09B05DF8B6
:1009B00004FB00B589B00390029101920093019B62
:1009C0000493009B05930A9B06930B9B079304AA31
:1009D000042302990398FFF75BFF00BF09B05DF89D
:1009E00004FB00B58BB00390029101920093019B30
:1009F0000493009B05930C9B06930D9B07930E9B02
:100A000008930F9B099304AA062302990398FFF702
:100A10003FFF00BF0BB05DF804FB0000054B5A68B8
:100A2000044B1B689A420CBF01230023DBB218461B
:100A3000704700BF0404002000B597B0FFF7EEFF39
:100A40000346002B01D00023ABE1AB4B0022C3F8DF
:100A50001824BFF34F8F00BFA74B5B681593A64BBD
:100A60009B680E93159A0E9B134002339B00A24A7B
:100A7000134404331493002313930023129300238D
:100A80000D931BE0159B01331593149B5B88C3F3F7
:100A900089139BB21A46149B1B88C3F389139BB21C
:100AA00013441A46159B13441593159A0E9B134035
:100AB00002339B00904A134404331493149B1B7815
:100AC00003F00303DBB2002BDCD00023119311E011
:100AD000159B5A1C15920E9A1340119A9200694662
:100AE0000A44854902339B000B445B681360119BE9
:100AF00001331193119B012BEAD99DF8003003F0CB
:100B00000303DBB2022B40F09C80BDF80230C3F33C
:100B100089139BB20B93BDF80230C3F389139BB2C8
:100B2000502B28BF50239BB20A930A9BC3F309039F
:100B30009AB2BDF8023062F38F13ADF802300A9B0F
:100B4000083309939DF80030C3F3C203DBB20D9361
:100B500009996A4801F079FA1390139B002B00F071
:100B6000DF80139801F002FB6946129B082213985C
:100B700001F0A8FB129B08331293159BDA430E9BDE
:100B8000134001339B0008930A9A089B9A4242D96A
:100B9000089B002B08D0159A0E9B134002339B0034
:100BA000554A1344043300E0554B0693089B002B31
:100BB00002D0089BDBB201E00A9BDBB28DF8173054
:100BC000089B002B01D04E4B00E000230493089BB0
:100BD000002B06D00A9BDAB2089BDBB2D31ADBB239
:100BE00000E000238DF80F309DF81720129B069926
:100BF000139801F067FB9DF81730129A1344129373
:100C0000049B002B16D09DF80F20129B049913987B
:100C100001F058FB0EE0159A0E9B134002339B0027
:100C2000354A134404330793129B0A9A0799139881
:100C300001F048FB0B9B03339B08159A1344159353
:100C40006EE09DF8003003F00303DBB2012B59D1B5
:100C5000BDF80030C3F38313DBB2062B28BF062395
:100C6000DAB2BDF8003062F38913ADF80030BDF898
:100C70000030C3F38313DBB202330C939DF80030D2
:100C8000C3F3C203DBB20D930C9B9B0019461B48B8
:100C900001F0DBF91390139B002B41D0139801F066
:100CA00065FA6946129B0822139801F00BFB129B10
:100CB000083312930023119314E0159B5A1C1592CC
:100CC0000E9A134002339B000B4A1344191D129BCA
:100CD0000422139801F0F6FA129B04331293119B2D
:100CE00001331193BDF80030C3F38313DBB21A460E
:100CF000119B9342E1D313E004040020086F01002C
:100D0000100400209DF8003003F00303DBB2032B36
:100D100006D1264BD3F81834002B01D1002340E034
:100D2000139B002B37D0214BD3F8103410931F4B5B
:100D3000D3F81834002B1AD0139801F026FA2AE0C1
:100D400000238DF83F301098FFF731FB0346002B4E
:100D500002D001238DF83F309DF83F30002B03D0A7
:100D600013991098FFF7EEFA109B5B681093109B95
:100D7000002BE5D1139801F008FA002000F00CFCDC
:100D80000A4BD3F81834002B02D1084A159B536044
:100D9000002000F015FCFFF741FE034683F001033D
:100DA000DBB2184617B05DF804FB00BF0404002056
:100DB00000B585B00023039322E0164BD3F810341E
:100DC000029301238DF807300EE00298FFF7E0FA56
:100DD00003461A46039B934203D100238DF8073044
:100DE00005E0029B5B680293029B002BEDD19DF80E
:100DF0000730002B01D0039B07E0039B01330393D3
:100E0000039B092BD9DD4FF0FF33184605B05DF881
:100E100004FB00BF0404002000B585B001900B4620
:100E20008DF80330FFF7C4FF0390039BB3F1FF3F3E
:100E300001D1039B1EE0039BDBB219460198FFF72B
:100E40009BFA0E4BD3F81034002B07D10B4A019BB1
:100E5000C2F81034019B00225A600AE0074BD3F815
:100E600010345A68019B5A60044BD3F81034019A2D
:100E70005A60039B184605B05DF804FB040400208B
:100E800000B583B00C4BD3F8103401930A4B012208
:100E900083F81C2408E00198FFF781FA0198FFF716
:100EA0005FFA019B5B680193019B002BF3D100BFAC
:100EB00000BF03B05DF804FB0404002010B582B04D
:100EC00001900091019BDB7983F00103DBB2002BE1
:100ED00028D0019B1B7A002B12D0019B9B881A46BD
:100EE000019B9B7919461046FFF75CFB03461A46A7
:100EF0000E4B53F822301A460D49009800F0C6FCFC
:100F0000019B9B791A460B4B53F82240019B9B880F
:100F100000211846FFF726FB0346224606490098A3
:100F200000F0B4FC00BF02B010BD00BF8C00002078
:100F300030700100780000203470010000B585B0E9
:100F40000390029113468DF80730039BDB7983F001
:100F50000103DBB2002B0FD0039B1B7A002B06D0C2
:100F60000D4B1B681A460D49029800F08FFC0C4986
:100F7000029800F08BFC07E09DF80730002B03D0AF
:100F80000749029800F082FC029800F05DFC00BF67
:100F900005B05DF804FB00BF8C000020307001003C
:100FA0004070010030B58BB0079006910592049314
:100FB0000E9B1B7B8DF827300E9B00221A730E9917
:100FC0000498FFF77BFF059B062B7FD801A252F800
:100FD00023F000BFF10F0000FB0F00000B1000001A
:100FE0001F1000003D10000065100000951000006B
:100FF00007990E9800F04AFC69E0069B1B681A46A8
:1010000007990E9800F042FC61E0069B1A68069B67
:1010100004331B6807990E9800F038FC57E0069BD4
:101020001A68069B04331968069B08331B680093F3
:101030000B4607990E9800F029FC48E0069B1968BA
:10104000069B04331868069B08331B68069A0C320B
:1010500012680192009303460A4607990E9800F021
:1010600015FC34E0069B1868069B04331C68069B3D
:1010700008331B68069A0C32126806991031096809
:101080000291019200932346024607990E9800F0C0
:10109000FDFB1CE0069B1C68069B04331D68069B39
:1010A00008331B68069A0C321268069910310968D9
:1010B00006981430006803900291019200932B4629
:1010C000224607990E9800F0E1FB00E000BF0022E5
:1010D0000E990498FFF732FF0E9B9DF827201A7394
:1010E00000BF0BB030BD00BF00B587B003900291C8
:1010F00001920093029B082B5CD8009B1B7B8DF810
:101100001330009B00221A7300990198FFF7D6FE56
:101110000023059314E0059A029B9A4209D2039A90
:10112000059B13441B781A462449009800F0AEFB37
:1011300003E02349009800F0A9FB059B01330593C8
:10114000059B072BE7D91F49009800F09FFB002360
:10115000059322E0059A029B9A4217D2039A059BB7
:1011600013441B788DF812309DF81230184615F094
:1011700021FA0346002B02D09DF8123000E02E2306
:101180001A461149009800F081FB03E00F490098CE
:1011900000F07CFB059B01330593059B072BD9D9F8
:1011A000012200990198FFF7C9FE009B9DF81320CA
:1011B0001A7300E000BF07B05DF804FB4470010043
:1011C0004C70010050700100547001005870010013
:1011D00000B5A1B00590049103920293049800F029
:1011E000C5FF039B1593029B1693002317930023BF
:1011F0008DF8603000231993229B1A9300231F93CC
:101200000FA91F9B0822049801F06EF808231F9372
:10121000119B1293109B9BB2ADF84C3001238DF8BB
:1012200050309DF83C3003F00303DBB2012B32D188
:101230000F9BC3F395231C939DF83C30C3F3C2036B
:10124000DBB28DF84E309DF83C30C3F38003DBB247
:10125000002B14BF01230023DBB28DF84F30BDF803
:101260003C30C3F38313DBB21B931B9B9A0009A989
:101270001F9B049801F038F81B9B9B001F9A134496
:101280001F9312AA09A915AB009313461B9A1C9829
:10129000FFF788FE3BE09DF83C3003F00303DBB230
:1012A000022B34D1BDF83E30C3F389139BB21E9399
:1012B0009DF83C30C3F3C203DBB28DF84E309DF88D
:1012C0003C30C3F38003DBB2002B14BF01230023A7
:1012D000DBB28DF84F301E9B082B28BF08231D93CF
:1012E00007A91F9B1D9A049800F0FEFF1F9A1D9BE3
:1012F00013441F931E9A1D9BD31A1E9315AB12AA5B
:1013000007A81D99FFF7F0FE1E9B002BE3D1049860
:1013100000F03BFF00BF21B05DF804FB08B504F00E
:1013200025F900BF08BD00B589B003900291019274
:10133000019B002B22D0002307930A230693029AD5
:10134000079B1344019A1946002004F0BFF805904A
:10135000079A059B13440793019A059BD31A01939F
:10136000059B002B05D1069B013B0693069B002B9A
:1013700003D0019B002BE2D100E000BF00BF09B009
:101380005DF804FB00B585B003900291054B009316
:101390004023054A02990398FFF71AFF00BF05B0E2
:1013A0005DF804FB271300002408002082B00190A0
:1013B00000BF02B0704782B0019000BF02B070471A
:1013C00000B589B0039002910192029B9BB2ADF8E7
:1013D0001430019B0693039B079305AB1A4600212B
:1013E00044F2010000F052F800BF09B05DF804FBC0
:1013F00086B003900291019201238DF817309DF879
:101400001730214A039B13601F4A029B53601E4AF8
:10141000019B9360039B44F20102934213D0039B10
:1014200044F20202934222D1019B174AD360164B29
:10143000DB681B881A46144B9A61134BDB685B68A8
:10144000114AD36113E0019B0F4A13610E4B1B69D4
:101450009B680D4A53610C4B1B691B881A460A4B4B
:101460009A61094B1B695B68074AD36100BF72B67A
:1014700000BF00BF9DF81730DBB2002BFAD162B677
:1014800000BF00BF06B070476408002030B589B0C7
:10149000059004910392FFF7F3FC00BFFFF7CCFA2D
:1014A0000346002BFAD1059B44F20102934214D06B
:1014B000059B44F2020293422DD1039B0793234BD9
:1014C0001B881B0443F00100079B5B681A46079BBF
:1014D0001B881F49FFF743FA28E0039B06931B4B29
:1014E0001B881B0443F00104069B9D68069B9B68B8
:1014F000184600F00BFF03461946069B5B681A4628
:10150000069B1B88019300920B462A4611492046F0
:10151000FFF74FFA0AE00D4B1B881B0443F0010351
:10152000049A0D491846FFF709FA00BF0B4B1B68D8
:1015300003F00103002B00D0FFDE039A0499059805
:10154000FFF756FF00BF09B030BD00BF000000200C
:1015500068700100847001009C700100F0ED00E0F3
:1015600072B600BF034B1B680133024A136000BF11
:10157000704700BF84080020064B1B68013B054AEA
:101580001360044B1B68002B01D162B600BF00BF83
:10159000704700BF8408002000B583B0019000F0C0
:1015A00025F80346012B03D00449432000F03BF803
:1015B000FFF7D6FF00BF03B05DF804FBB470010075
:1015C00000B583B003468DF8073000F00FF80346EE
:1015D000012B03D00449512000F025F8FFF7CCFF80
:1015E00000BF03B05DF804FBB470010084B0EFF3FA
:1015F00005830193019BC3F308030393039B002B13
:101600000DD1EFF314830093009B0293029B03F030
:101610000103002B0CBF01230023DBB200E00123F8
:10162000184604B0704700B585B003460091ADF888
:101630000630BDF80630ADF80830009B039302ABCE
:101640001A46002144F20200FFF720FF00BF05B058
:101650005DF804FB00B583B001900B468DF80330B4
:10166000019B002B03D10849AF20FFF7DCFF019B52
:10167000DA689DF803300199098A01FB03F31344EA
:10168000184603B05DF804FB4871010000B583B053
:1016900001900091019B002B03D10849BC20FFF76A
:1016A000C2FF009B019AD2689B1A019A128AB3FB6F
:1016B000F2F3DBB2184603B05DF804FB4871010099
:1016C00000B585B00190019B002B01D10E2348E0AD
:1016D000019B1B68002B03D12449C620FFF7A3FF01
:1016E000019B5B68002B03D12049C720FFF79BFFBC
:1016F000019B9B68002B03D11C49C820FFF793FF77
:10170000019BDB68002B03D11849C920FFF78BFF31
:10171000019B1B8A002B03D11449CA20FFF783FFCA
:10172000019B9A68019B5B68D31A8DF80F30019B6F
:101730001B68019A52681A6007E0019B1A681368D7
:10174000591C11609DF80F201A709DF80F305A1E19
:101750008DF80F20002BF0D1019B1B6800221A711D
:101760000023184605B05DF804FB00BF4871010076
:1017700000B585B00190019B002B03D11B49EC20E3
:10178000FFF751FF002303930020FFF705FF019BA4
:101790001B681A68019B5B689A421FD9019B1B68F2
:1017A0001A68013A1A601B681B7819460198FFF7FE
:1017B00051FF0390019B9A68019B1B681B68D31A19
:1017C0008DF80B30019B1B681B799DF80B209A420A
:1017D00004D9019B1B689DF80B201A710020FFF7AC
:1017E000EFFE039B184605B05DF804FB487101004D
:1017F00010B584B001900091019B002B04D11149D8
:101800004FF48870FFF70FFF009B002B04D10D49A8
:1018100040F21110FFF707FF009B03930020FFF732
:10182000BBFE019B1B681C68621C1A60039901982F
:10183000FFF72CFF034623700020FFF7C1FE00BF17
:1018400004B010BD4871010000B583B00190019B48
:10185000002B03D10C493120FFF7E5FE019B9B686B
:10186000002B0CD0019B5B69019A1069019A1168E9
:10187000019A92689847019B00229A6000E000BF9D
:1018800003B05DF804FB00BFD07101000EB400B5D9
:1018900084B00190019B002B03D118494220FFF72F
:1018A000C2FE019B5B69002B03D114494320FFF763
:1018B000BAFE019B1B68002B03D110494420FFF79F
:1018C000B2FE019B5B68002B03D10C494520FFF75A
:1018D000AAFE059B002B0AD00023039306AB0393BB
:1018E00003AB1A460599019800F0B0F900E000BF7B
:1018F00004B05DF804EB03B0704700BFD071010085
:1019000000B583B001900B468DF80330019B1A6837
:10191000019B9B68581C0199886013449DF8032023
:101920001A70019B9A68019B5B689A4202D30198E6
:10193000FFF78AFF00BF03B05DF804FB00B587B076
:10194000039002910192009300230593009B03F002
:101950000103002B24D00BE0029B01330293059B73
:10196000013305939DF8133019460398FFF7C8FF1C
:10197000029B1B788DF813309DF81330002BEBD1B0
:1019800006E0019B013B019320210398FFF7B8FF7C
:10199000019A059B9A422ED9019B002BF1D12AE096
:1019A000029B002B0BD0029814F0B8FE059006E0C5
:1019B000019B013B019320210398FFF7A1FF019AAE
:1019C000059B9A420FD9019B002BF1D10BE0029BA2
:1019D00001330293059B013305939DF8133019469B
:1019E0000398FFF78DFF029B1B788DF813309DF84D
:1019F0001330002BEBD100BF07B05DF804FB0000F3
:101A000000B589B00390029101920093029B079365
:101A10000123069307E0079A019BB2FBF3F30793B8
:101A2000069B01330693079A019B9A42F3D2009AD0
:101A3000069B9A4201D9009B06930B9B03F001037E
:101A4000002B22D10A9B002B1FD00B9B03F002031B
:101A5000002B06D0009B002B03D130238DF81730CC
:101A600002E020238DF8173008E00A9B013B0A931F
:101A70009DF8173019460398FFF742FF0A9B002B89
:101A800003D0069A0A9B9A42EFD301230793009B47
:101A9000012B03D9009B013B009309E0029A079BAD
:101AA000B2FBF3F30493049A019B9A4200D205E03F
:101AB000079B019A02FB03F30793E8E7029A079B4F
:101AC000B2FBF3F30493049B079A02FB03F3029A1D
:101AD000D31A0293154A049B13441B7819460398A2
:101AE000FFF70EFF079A019BB2FBF3F30793079BE7
:101AF000002BE3D10B9B03F00103002B11D00A9BB9
:101B0000002B0ED006E00A9B013B0A93202103988C
:101B1000FFF7F6FE0A9B002B03D0069A0A9B9A4217
:101B2000F1D300BF09B05DF804FB00BFD47201001F
:101B300000B589B00590049103920293049B002B99
:101B4000B8BF5B4206930123079307E0039B069A05
:101B500092FBF3F30693079B01330793039B069ACB
:101B60009A42F3DA029A079B9A4201D9029B0793A1
:101B70000A9B002B0AD0049B002B04DB0B9B03F079
:101B80000403002B02D00A9B013B0A930B9B03F03A
:101B90000203002B02D0029B002B16D00B9B03F0FC
:101BA0000103002B11D10A9B002B0ED006E00A9BEB
:101BB000013B0A9320210598FFF7A2FE0A9B002B08
:101BC00003D0079A0A9B9A42F1D3049B002B07DAB1
:101BD000049B5B4204932D210598FFF791FE08E0DA
:101BE0000B9B03F00403002B03D02B210598FFF778
:101BF00087FE0B9B03F00203002B19D00B9B03F015
:101C00000103002B14D1029B002B11D10A9B002B46
:101C10000ED006E00A9B013B0A9330210598FFF79E
:101C20006FFE0A9B002B03D0079A0A9B9A42F1D3BE
:101C300004990B9B01930A9B0093029B039A0598BE
:101C4000FFF7DEFE00BF09B05DF804FB00B58FB002
:101C5000059004910392059B002B04D1B6494FF4E3
:101C60009F70FFF7E0FC059B5B69002B04D1B24934
:101C70004FF4A070FFF7D7FC059B1B68002B04D125
:101C8000AD4940F24110FFF7CEFC059B5B68002B8D
:101C900004D1A9494FF4A170FFF7C5FC049B002BA8
:101CA00000F09381049B1B788DF83730049B01333F
:101CB00004939DF83730002B00F07E819DF837307B
:101CC000252B40F06D8100230A9301230C93049B84
:101CD0001B788DF837309DF83730302B0DD0302BF6
:101CE0001BDC2B2B11D02D2B17D10A9B43F00103AA
:101CF0000A93049B0133049312E00A9B43F002030E
:101D00000A93049B013304930AE00A9B43F0040303
:101D10000A93049B0133049302E000230C9300BF59
:101D20000C9B002BD3D1002309939DF837302A2B2D
:101D30000CD1039B1B68191D039A11601B68099A3B
:101D400013440993049B013304931AE0049B1B780A
:101D50008DF837309DF837302F2B12D99DF837305A
:101D6000392B0ED8049B01330493099A13469B0028
:101D700013445B001A469DF837301344303B0993F7
:101D8000D3E700230B93049B1B788DF837309DF825
:101D900037302E2B1DD1049B01330493049B1B78F9
:101DA0008DF837309DF837302F2B12D99DF837300A
:101DB000392B0ED8049B013304930B9A13469B00D6
:101DC00013445B001A469DF837301344303B0B93A5
:101DD000E4E7049B1B788DF837309DF837306C2B87
:101DE00003D09DF83730682B07D1049B013304934F
:101DF000049B1B788DF83730EFE79DF83730252BA3
:101E000000F0C480252BC0F2C680782B00F3C3807D
:101E1000582BC0F2C080583B202B00F2BC8001A29E
:101E200052F823F0131F0000971F0000971F0000B7
:101E3000971F0000971F0000971F0000971F0000CA
:101E4000971F0000971F0000971F0000971F0000BA
:101E5000A91E0000CB1E0000971F0000971F000066
:101E6000971F0000971F0000CB1E0000971F000067
:101E7000971F0000971F0000971F0000971F00008A
:101E8000971F0000591F0000971F0000971F0000B8
:101E90003D1F0000971F0000EF1E0000971F00006D
:101EA000971F0000131F0000039B1B68191D039A56
:101EB00011601B680C930C9B8DF81F309DF81F3030
:101EC00019460598FFF71CFD66E0039B1B68191D6A
:101ED000039A11601B680C930A9B0193099B009362
:101EE0000B9B0A220C990598FFF722FE54E0039BF6
:101EF0001B68191D039A11601B680C930C990A9BAF
:101F00000193099B00930B9B0A220598FFF778FD2C
:101F100042E0039B1B68191D039A11601B680C9318
:101F20000C990A9B0193099B00930B9B1022059827
:101F3000FFF766FD30E000BF50720100039B1B6895
:101F4000191D039A11601B6808930A9B099A089946
:101F50000598FFF7F3FC1FE0039B1B68191D039A0C
:101F600011601B680C9330210598FFF7C9FC78219C
:101F70000598FFF7C5FC0C990023019308230093F3
:101F8000082310220598FFF73BFD05E02521059861
:101F9000FFF7B6FC00E000BF049B0133049305E0AB
:101FA0009DF8373019460598FFF7AAFC049B1B786B
:101FB000002B7FF477AE00E000BF059B1B7B002B5E
:101FC00004D00598FFF740FC00E000BF0FB05DF8BB
:101FD00004FB00BF10B487B001900091019B009AF0
:101FE00053E8004F04EB020043E8000191F0000FBA
:101FF000F6D1059404900391049B184607B05DF850
:10200000044B704710B487B001900091019B009A77
:1020100053E8004FA4EB020043E8000191F0000FE9
:10202000F6D1059404900391049B184607B05DF81F
:10203000044B704700B583B001900198FFF740FB57
:102040000346184603B05DF804FB00B58BB0019061
:102050000091019B1B8A043B0793009A079B134442
:10206000DA1C079BB2FBF3F38DF81B300198FFF7E6
:102070007FFB0590059B002B01D1002338E0059BD9
:1020800000221A71059B01225A71079B9AB2059B87
:10209000DA80059B09939DF81B30013B0493099B53
:1020A000019A1A60002308931DE00198FFF760FB76
:1020B0000390039B002B0ED0059B5B790133DAB2B2
:1020C000059B5A71099B039A1A60039B019A1A6037
:1020D000039B099304E0059800F00EF8002307E045
:1020E000089B01330893089A049B9A42DDD3059B11
:1020F00018460BB05DF804FB00B58BB00190019B56
:102100000793079B5B798DF81B30019B08939DF823
:102110001B30013B05930023099305E0089B1B68D6
:102120000893099B01330993099A059B9A42F5D3B9
:10213000089B1B680493019B0893002309930BE001
:10214000089B1B68039308990498FFF751FB039BB6
:102150000893099B013309939DF81B30099A9A4211
:10216000EED300BF00BF0BB05DF804FB00B585B037
:102170000190019B0393039B043301211846FFF751
:1021800029FF00BF05B05DF804FB00B587B00190E2
:10219000019B0593059B043301211846FFF732FF8D
:1021A0000346039303AB0493049B1B78002B02D1DB
:1021B0000198FFF7A1FF00BF07B05DF804FB000026
:1021C00000B58DB00390029101920093039B06939A
:1021D000069BDB880593039B0B93009B1A1D059BB5
:1021E000B2FBF3F30A93009B0433059AB3FBF2F2BC
:1021F000059901FB02F29B1A0993009A019B1A446C
:10220000059B1344DA1C059BB2FBF3F38DF81330E6
:10221000069B5B799DF813209A420AD92849BA2077
:10222000FFF701FA05E00B9B1B680B930A9B013B30
:102230000A930A9B002BF6D100230893059A099B69
:10224000D31A0793079A019B934228BF134607931B
:102250002DE09DF83830002B0BD0029A089BD01847
:102260000B9A099B13440433079A194614F0D8F9C2
:102270000AE00B9A099B1344181D029A089B134409
:10228000079A194614F0CCF9002309930B9B1B689D
:102290000B93019A079BD31A0193089A079B134447
:1022A0000893059A019B934228BF13460793019B0D
:1022B000002BCED100BF00BF0DB05DF804FB00BF06
:1022C000E472010000B587B0059004910392029377
:1022D00000230093029B039A04990598FFF770FF6F
:1022E00000BF07B05DF804FB00B587B0059004910E
:1022F0000392029301230093029B039A0499059889
:10230000FFF75EFF00BF07B05DF804FB00B585B0C6
:102310000190019800F00EF80390039B002B01D070
:10232000039B00E0024B184605B05DF804FB00BFBC
:102330007873010086B00190164B0593164B0493F9
:102340001FE0049A059BD31ADB10DA0F13445B10CD
:10235000DB00059A13440393039B1B680293029AC4
:10236000019B9A4202D9039B04930AE0029A019BC3
:102370009A4203D2039B0833059302E0039B5B68F8
:1023800004E0059A049B9A42DBD30023184606B06A
:10239000704700BF947601008477010082B0034645
:1023A0008DF807309DF8073003F01F0205499DF9AD
:1023B00007305B09012000FA02F241F8232000BF38
:1023C00002B0704700E100E082B003468DF80730AC
:1023D0009DF8073003F01F0206499DF907305B099D
:1023E000012000FA02F2203341F8232000BF02B09E
:1023F000704700BF00E100E082B003468DF807306F
:102400009DF8073003F01F0206499DF907305B096C
:10241000012000FA02F2403341F8232000BF02B04D
:10242000704700BF00E100E082B003468DF807303E
:102430009DF8073003F01F0206499DF907305B093C
:10244000012000FA02F2603341F8232000BF02B0FD
:10245000704700BF00E100E082B0034600918DF8B4
:1024600007309DF90730002B0CDA009BDAB20C49DB
:102470009DF8073003F00F03043B5201D2B20B4426
:102480001A7609E0009BDAB206499DF9073052013D
:10249000D2B20B4483F8002300BF02B0704700BFE4
:1024A00000ED00E000E100E084B00190244B0393D4
:1024B000019B002B40D0234B1A680399019B00BF5E
:1024C00000BF00BF00BF00BF00BF00BF00BF8A4207
:1024D0002FD000BF00BF00BF00BF00BF00BF00BFC4
:1024E00000BF00BF00BF00BF00BF00BF00BF00BFF4
:1024F00000BF00BF00BF00BF00BF00BF00BF00BFE4
:1025000000BF00BF00BF00BF00BF00BF00BF00BFD3
:1025100000BF00BF00BF00BF00BF00BF00BF00BFC3
:1025200000BF00BF00BF00BF00BF00BF00BF00BFB3
:1025300000BF013BC3D1019300BF04B0704700BF8F
:102540000024F4001801002000B583B00190064A71
:10255000019BC2F8083507211120FFF77DFF00BF5E
:1025600003B05DF804FB00BF0010014008B50D4B3F
:102570004FF48032C3F844230A4B4FF48032C3F83F
:1025800004231120FFF750FF1120FFF707FF054B31
:1025900001221A602F20FFF787FF034B01221A70D8
:1025A00000BF08BD001001401E0A002008B5112020
:1025B000FFF70AFF0E4B4FF48032C3F848230C4B51
:1025C0004FF48032C3F80823094B01225A602F20B0
:1025D000FFF76AFF064B01229A60064B00221A6041
:1025E0002F20FFF761FF044B00221A7000BF08BDC7
:1025F00000100140100A00201E0A0020024BD3F8F0
:1026000004351846704700BF0010014082B00190A9
:102610000091019A009BD31A23F07F43184602B021
:102620007047000082B00190034A019BC2F8403518
:1026300000BF02B0704700BF0010014086B001909B
:10264000284B1B68002B03D1264A019B136045E0F1
:10265000019B1A68234B1B681B689A4210D8214BB8
:102660001B681968019B1A681E4B1B688A1A1A603E
:102670001C4B1A68019BDA611A4A019B13602DE01A
:10268000019B1B680393174B1B680593154B1B6835
:10269000049309E0049B1B68039AD31A0393049BD9
:1026A0000593049BDB690493049B002B04D0049BDB
:1026B0001B68039A9A42EDD8049B002B05D0049B1B
:1026C0001A68039BD21A049B1A60019B039A1A6032
:1026D000019B049ADA61059B019ADA6100BF06B09A
:1026E000704700BF0C0A002000B587B001902A4B4C
:1026F0001B680393284B1B680593059B049308E014
:10270000049A019B9A4208D0049B0593049BDB69C1
:102710000493049B002BF3D100E000BF049B002B2B
:1027200001D1002333E0059A049B9A4214D11A4B3D
:102730001B68DB69184A1360174B1B68002B0BD111
:10274000164B01229A60164B00221A60154B01228B
:102750001A702F20FFF7A8FE049B1B680293049BAE
:10276000DA69059BDA61059BDB690493049B002B06
:1027700005D0049B1A68029B1A44049B1A60064BFE
:102780001B68039A9A4214BF01230023DBB2184648
:1027900007B05DF804FB00BF0C0A002000100140E8
:1027A000100A00201F0A002008B51120FFF724FEA0
:1027B00000BF08BD08B51420FFF71EFE00BF08BD0E
:1027C00000B585B001900B46ADF80230BDF802307F
:1027D000082B0CBF01230023DBB20393039B002BC8
:1027E00005D1094A4FF4B7710020FEF7E9FD019BBE
:1027F0000293029B1B68029A52681046984700BFDA
:1028000005B05DF804FB00BF8477010000B587B018
:102810000190019B5B690293019B9B69039302AB4F
:102820000A4A0821184600F047FC0590059B0493CE
:10283000049B002B05D0064A4FF4C1710498FEF7A3
:10284000BFFD00BF07B05DF804FB00BFC12700005B
:102850008477010000B585B02B4B1B68002B4ED050
:1028600000230193FFF7CAFE0246284B1B68194656
:102870001046FFF7CBFE0290234B1B6803931DE02D
:10288000039B1B68029A9A421CD3039B1B68029A03
:10289000D31A0293039B1B68019A13440193039B71
:1028A0000093039BDB690393009B1B7C002B05D0EB
:1028B000009B00221A740098FFF7A8FF039B002BCF
:1028C000DED100E000BF124B1A78124B1B789A42FF
:1028D0000CD1104B1B780133DAB20E4B1A700D4B32
:1028E0001B78022B02D10B4B00221A70094B1B786C
:1028F0001946094A019B42F82130FFF75BFF00BFF0
:1029000005B05DF804FB00BF0C0A0020100A00208F
:102910001C0A00201D0A0020140A002082B0019029
:10292000184B1A78184B1B789A4223D0154B1B78FA
:102930000133DAB2134B1A70124B1B78022B02D1FF
:10294000104B00221A700F4B1B781A460F4B53F88E
:102950002220019B1A60019B1A680D4B1B681344CF
:102960000B4A13600A4B1B6823F07F43084A13602D
:10297000012303E0019B00221A600023184602B0E5
:10298000704700BF1C0A00201D0A0020140A002006
:10299000100A002088B0039002910192002307934F
:1029A00038E0204B1B680693069B1B68039A9A42EB
:1029B00006D2069B1A68039BD21A069B1A602EE069
:1029C000069B1B68039AD31A0393069B1B68079AFE
:1029D00013440793069B00221A60124B1B68059351
:1029E000069BDB690F4A1360069BDB68002B11D046
:1029F000029A079B134423F07F42069B5A60069B72
:102A0000DA68069B9A60019B1A68069BDA61019B53
:102A1000059A1A60034B1B68002BC2D100BF00BF90
:102A200008B070470C0A002000B589B0019000235F
:102A30008DF81F30664B1B680593AAE0019B002BA5
:102A400005D0019B0693069BDB69019361E0614B16
:102A50001B781A4613465B001344DB005D4A13449F
:102A6000043304935B4B1B780133DAB2594B1A7071
:102A7000584B1A78574B9B789A4202D1554B0022FB
:102A80001A70049B5B680693049B1B78032B1ED073
:102A9000032B7EDC012B1FD0022B7AD1049B5B68B9
:102AA0001846FFF721FE0346002B02D001238DF8C4
:102AB0001F30069B00221A746BE0454B1B68039382
:102AC000039B00221A74039BDB69414A1360404B4D
:102AD0001B68002BF1D15CE000BF069B1B7C002B28
:102AE00000D056E0049B9A68069B5A60049BDA6803
:102AF000069B9A60049B1A69069BDA60049B5A69DC
:102B0000069B9A61344B1B78002B02D0069B002257
:102B10005A60069B5A68314B1B68D31A23F07F43D7
:102B20002F4A93420ED8069B5B682C4A12681146C6
:102B30001846FFF76BFD0246069B9B681A44069BEE
:102B40001A6017E0254B1A68069B5B681946104609
:102B5000FFF75CFD0290069B9B68029A9A4206D2A0
:102B6000069B9A68029BD21A069B1A6002E0069B9B
:102B700000221A60069B00225A60069B00229A607F
:102B8000069B01221A74069B0022DA610698FFF761
:102B900055FD019B002B7FF451AF0E4B1A780D4B66
:102BA0005B789A427FF44AAF9DF81F30002B04D126
:102BB000074B1B68059A9A4201D0012300E00023CD
:102BC00003F00103DBB2184609B05DF804FB00BF57
:102BD0000C0A0020880800201F0A0020100A00208C
:102BE000FEFF7F0010B588B00190274B1B68002BBB
:102BF00044D0254B1B681B680793FFF7FFFC06902A
:102C0000224B1B68059305990698FFF7FFFC0346C6
:102C1000033304931E4B1B7883F00103DBB2002BBC
:102C200001D0FFF7A3FC049A079B934238BF1346D9
:102C3000059A13440593059B23F07F43059305985C
:102C4000FFF7F0FCFFF7DAFC039006990398FFF713
:102C5000DDFC0346DC1C06990598FFF7D7FC03460C
:102C60009C420DD9FFF7CAFC03461846FFF7DAFC71
:102C70002F20FFF719FCFFF797FD01E0FFF796FC07
:102C800000BF08B010BD00BF0C0A0020100A0020D1
:102C90001E0A002000B587B00023019300238DF8A1
:102CA0001730194B1B680493184B1B6803936B4632
:102CB0001846FFF733FE03468DF80B309DF80B30B6
:102CC000002B08D0009B01AA04991846FFF762FE6A
:102CD00001238DF81730019B1846FFF7A5FE034628
:102CE000002B02D001238DF817309DF81730002BF0
:102CF00002D00398FFF776FF054B00221A7000BF41
:102D000007B05DF804FB00BF100A00200C0A002089
:102D10001F0A002082B003468DF80730034A9DF851
:102D20000730537000BF02B0704700BF8808002012
:102D300084B00190144B5B7801338DF80F30124B47
:102D40009B789DF80F209A4202D100238DF80F3016
:102D50000D4B1B789DF80F209A4201D100230FE004
:102D6000019B9DF80F201A70074B5B781A4613469B
:102D70005B001344DB00044A134404330293029BB8
:102D8000184604B0704700BF8808002000B589B01D
:102D90000390029101920093002307930020FEF715
:102DA000FBFB0DF117031846FFF7C2FF0690069BC9
:102DB000002B02D10423079318E0069B01221A700E
:102DC000069B039A5A60FFF719FC0246069B9A601D
:102DD000069B029ADA60069B019A1A61069B009A8A
:102DE0005A619DF817301846FFF794FF0020FEF750
:102DF000E7FB079B002B01D1FFF7DCFC079B184684
:102E000009B05DF804FB000008B50E4B0022C3F8C2
:102E100040210C4B0022C3F844210A4B0022C3F886
:102E20004821084B0022C3F84C21064B0022C3F86E
:102E30000021044B0022C3F80421FFF70BFD00BF63
:102E400008BD00BF0010014008B5FFF723FF00BF19
:102E500008BD000008B5FFF7A9FB134B00221A704C
:102E6000114B00225A70104B10229A700F4B002207
:102E70001A600F4B00221A700E4B00221A70142099
:102E8000FFF7D2FA07211420FFF7E6FA1420FFF724
:102E900085FA1F20FFF758FBFFF7B0FB0346064AF1
:102EA00013600023184608BD880800200C0A002083
:102EB0001C0A00201D0A0020100A002086B0039082
:102EC0000B4601928DF80B30134B9B78002B01D1F0
:102ED00008231EE0019B002B01D1072319E0039B6F
:102EE000002B01D1072314E0039B1B681B7C002BE4
:102EF00001D008230DE0039B1B680593059B00226E
:102F00001A74059B9DF80B205A74059B019A5A610F
:102F10000023184606B070478808002000B587B027
:102F2000039002910192039B0593144B9B78002B15
:102F300001D108231EE0039B002B01D1082319E0D7
:102F4000029B042B01D8072314E0059B5B69002B2F
:102F500001D108230EE0059B5B7C012B01D1029B74
:102F600000E000230493019B049A02990598FFF75F
:102F70000DFF0346184607B05DF804FB88080020E3
:102F800082B00190019B03F00303002B0CBF0123CF
:102F90000023DBB2184602B07047000082B003463F
:102FA0008DF807309DF807309AB2064B1B889A427D
:102FB00004D29DF807300133DBB200E0002318464D
:102FC00002B070472C0A002000B583B00B4B1B7871
:102FD0008DF807300A4B1B78DBB21846FFF7DEFF8F
:102FE00003461A469DF8073093420CBF0123002385
:102FF000DBB2184603B05DF804FB00BF280A0020CE
:10300000290A002082B0084B1B788DF80730074B47
:103010001B78DBB29DF807209A420CBF01230023E6
:10302000DBB2184602B07047280A0020290A0020A7
:1030300000B585B003460092ADF806300B46ADF8FA
:103040000430BDF8043001339BB2DB00ADF80E3024
:103050000098FFF795FF034683F00103DBB2002BD6
:1030600001D0072317E00E4A009B1360BDF80E3015
:10307000009A13440B4A13600B4B00221A700B4B3F
:1030800000221A700A4ABDF806301380094ABDF8BA
:10309000043013800023184605B05DF804FB00BF20
:1030A000200A0020240A0020290A0020280A0020E3
:1030B0002A0A00202C0A002000B587B003900B4696
:1030C0000192ADF80A30334B1B88BDF80A209A42B2
:1030D00059D84FF6FF73ADF812300020FEF75CFAB6
:1030E000FFF772FF0346002B0ED12B4B1B78DBB290
:1030F000ADF81230284B1B78DBB21846FFF74EFFB5
:1031000003461A46244B1A700020FEF759FABDF800
:1031100012304FF6FF72934232D0204B1A68BDF83E
:103120001230DB001344019A1A60039B002B1CD061
:10313000BDF80A30002B18D0194B1B68BDF81220BF
:103140001449098801FB02F21344BDF80A200399CF
:10315000184613F065FA114B1A68BDF81230DB00FF
:103160001344BDF80A209A8007E00C4B1A68BDF89A
:103170001230DB00134400229A800023059304E000
:103180000423059301E009230593059B184607B026
:103190005DF804FB2A0A0020290A0020200A0020EA
:1031A000240A0020002318467047000000B585B0AF
:1031B0002FE0204B1B78DBB2ADF80E301E4B1B68A6
:1031C000BDF80E201D49098801FB02F21344029349
:1031D0001B4B1A68BDF80E30DB0013449B88ADF81A
:1031E0000630174B1A68BDF80E30DB0013441B681D
:1031F0000093BDF80620009B1146029898470D4B9E
:103200001B78DBB21846FFF7C9FE03461A46094B86
:103210001A70FFF7C7FF034683F00103DBB2002BF0
:1032200004D0FFF7EFFE0346002BC2D000BF05B06D
:103230005DF804FB280A0020240A00202A0A002046
:10324000200A002082B003468DF807309DF8073031
:1032500003F01F0206499DF907305B09012000FABF
:1032600002F2603341F8232000BF02B0704700BF74
:1032700000E100E000B583B00190019B002B03D179
:1032800006497220FEF7CFF9019B00221A60BFF3B6
:103290005F8F00BF00BF03B05DF804FB80780100C2
:1032A00000B585B00020FEF777F9F1EE103A0193F2
:1032B000019B0393039B23F09F030293029BE1EE88
:1032C000103A00BFBFF35F8F00BF2620FFF7BAFFA1
:1032D0000020FEF775F9039B03F00703002B03D0D2
:1032E00003497620FEF79FF900BF05B05DF804FBA7
:1032F000E078010008B5064B00221A700548FFF778
:10330000B9FF0549054800F017F80023184608BD25
:10331000340A0020300A00206C790100380A0020AD
:1033200008B5FFF7BDFF20BF00BF40BF00BF20BFF3
:1033300000BF00BF08BD000000B583B00190009140
:10334000019B002B03D110495020FEF76CF9009B24
:10335000002B03D10C495120FEF765F9019B009A1F
:103360001A60019B1B681A68019B5A60019B5A688E
:10337000019B1B685B689A4202D1019B00225A6044
:1033800000BF03B05DF804FB78790100BFF34F8FF5
:1033900000BF074BDB6803F4E0620549054B1343AC
:1033A000CB60BFF34F8F00BF00BF00BFFCE700BF83
:1033B00000ED00E00400FA0500B583B00190FFF7CE
:1033C000E5FF00BF03B05DF804FB000010B588B056
:1033D0000390FDF755FD00BFFDF72EFB0346002BC4
:1033E000FAD1039B0693494B9B6A0593484B1B8874
:1033F0001B0443F00100069B9B691A464549FDF7F3
:103400009DFA434B1B881B0443F00100069B19687F
:10341000069B5C68069B9B68069AD26801920093A3
:1034200023460A463C49FDF7C4FA394B1B881B0466
:1034300043F00100069B1A69069B5969069BDB69EC
:1034400000930B463549FDF79EFA304BDB6A03F0DB
:103450000203002B08D02E4B1B881B0443F00103F2
:103460002F491846FDF75CFA002307931EE001225E
:10347000079B02FA03F31A46059B1340002B12D058
:10348000284A079B52F82330002B0CD0204B1B8876
:103490001B0443F00100234A079B52F823301A46CD
:1034A0002149FDF74BFA079B01330793079B192B23
:1034B000DDD9059B03F08003002B0AD0144B1B8839
:1034C0001B0443F00103114A526B18491846FDF7DB
:1034D00035FA059B03F40043002B0AD00C4B1B88E4
:1034E0001B0443F00103094A926B11491846FDF78A
:1034F00025FA104B1B6803F00103002B00D0FFDE00
:103500000398FFF759FF00BF08B010BD00ED00E0C1
:1035100030000020247A01003C7A0100747A010016
:103520009C7A0100B0000020E07A0100EC7A0100F2
:103530000C7B0100F0ED00E01EF0040F1CBFEFF368
:1035400009800AE0EFF308800849094A884201D857
:10355000904202D88D464FF000006B46854608B574
:10356000044B9847BDE808409D4670470000012085
:1035700000F80020CD33000000BF00BF82B003463A
:103580008DF807309DF8073003F01F0205499DF9BB
:1035900007305B09012000FA02F241F8232000BF46
:1035A00002B0704700E100E082B003468DF80730BA
:1035B0009DF8073003F01F0206499DF907305B09AB
:1035C000012000FA02F2603341F8232000BF02B06C
:1035D000704700BF00E100E082B0034600918DF823
:1035E00007309DF90730002B0CDA009BDAB20C494A
:1035F0009DF8073003F00F03043B5201D2B20B4495
:103600001A7609E0009BDAB206499DF907305201AB
:10361000D2B20B4483F8002300BF02B0704700BF52
:1036200000ED00E000E100E000B583B003460A468B
:103630008DF8073013468DF806309DF80630072BBD
:1036400004D90D494FF49270FDF7EDFF9DF8062067
:103650009DF9073011461846FFF7BEFF9DF9073068
:103660001846FFF7A1FF9DF907301846FFF786FFC0
:1036700000BF03B05DF804FBFC7F010000B583B020
:103680000346ADF80630BDF80630184600F026F8BF
:1036900003461B68012B0CBF01230023DBB2184635
:1036A00003B05DF804FB00B585B00346ADF8063005
:1036B000BDF80630184600F011F803461A460023FC
:1036C0001360BDF80630184600F008F803461B6882
:1036D0000393039B00BF05B05DF804FB82B0034673
:1036E000ADF80630BDF8063003F1804303F5C04362
:1036F000184602B07047000082B00190034A019B57
:10370000C2F8043300BF02B0704700BF0060004041
:1037100082B00190034BD3F80423019B1340184659
:1037200002B070470060004082B00190084A019BDF
:1037300003F5A27352F82330054943F00102019BBF
:1037400003F5A27341F8232000BF02B0704700BF09
:103750000060004084B00390029113468DF807305A
:10376000144A039B03F5A27352F82330114923F442
:10377000473323F44073039A02F5A27241F82230D2
:103780000C4A039B03F5A27352F82320029B1B02F1
:1037900003F4F8519DF807301B0403F440330B4346
:1037A00004491A43039B03F5A27341F8232000BF89
:1037B00004B070470060004082B00190054A019B50
:1037C00003F5A27352F823301B0A03F01F031846B7
:1037D00002B070470060004082B00190064A019B31
:1037E00003F5A27352F823301B0C03F00303DBB282
:1037F000184602B0704700BF0060004000B583B0BB
:103800000190019B1B681F2B04D905494FF4E870F8
:10381000FDF709FF4FF0A043184603B05DF804FB25
:103820008C80010000B585B00190084611461A460B
:1038300003468DF803300B468DF8023013468DF8A1
:10384000013001AB1846FFF7D9FF03909DF8032024
:103850009DF802305B001A439DF801309B001A432B
:103860009DF818301B0242EA03019DF81C301B042E
:10387000019A1943039B02F5E07243F8221000BF3E
:1038800005B05DF804FB00B585B003900B468DF8DC
:103890000B309DF80B300022019200220092002292
:1038A00000210398FFF7BEFF00BF05B05DF804FBE1
:1038B00000B585B0019001AB1846FFF79FFF03905C
:1038C000019A039B02F5E07253F8223023F00203C1
:1038D0000293019A039B02F5E072029943F82210C9
:1038E00000BF05B05DF804FB00B585B001900B4644
:1038F0008DF8033001AB1846FFF780FF0390019A63
:10390000039B02F5E07253F82230019A23F4403110
:10391000039B02F5E07243F82210019A039B02F523
:10392000E07253F822309DF8032012041146019AE8
:103930001943039B02F5E07243F8221000BF05B063
:103940005DF804FB00B585B0019001AB1846FFF7A8
:1039500055FF0390039800F020F80246019B22FADD
:1039600003F303F00103184605B05DF804FB00B54E
:1039700085B0019001AB1846FFF740FF0390019A14
:10398000039B02F5E07253F822301B0C03F0030393
:10399000DBB2184605B05DF804FB82B00190019BD4
:1039A000D3F81035184602B07047000000B587B054
:1039B0000390029101924FF0A0430493039A029B5B
:1039C0001344012B04D912494FF43A70FDF72BFE32
:1039D000039B059311E0059B9B0006AA134453F833
:1039E000083C1846FFF7D9FF0246019B1A60019B6D
:1039F00004330193059B01330593039A029B1344FF
:103A0000059A9A42E7D300BF00BF07B05DF804FBF8
:103A10008C80010084B001900091009B0393019B76
:103A2000DB080293019B03F0070301930122019B32
:103A300002FA03F30399029A0A44127813401846D3
:103A400004B0704784B001900091009B0393019BE8
:103A5000DB080293019B03F007030193039A029B87
:103A600013441B785AB20121019B01FA03F35BB2A4
:103A7000134359B2039A029B1344CAB21A7000BF8F
:103A800004B0704782B001900C4A019B1344383354
:103A900093F90030002B09DB084A019B13443833AB
:103AA00093F90030072B01DC012300E0002303F031
:103AB0000103DBB2184602B0704700BF400A002085
:103AC00082B00190064A019B1344383393F90030C9
:103AD000072BCCBF01230023DBB2184602B070478E
:103AE000400A002082B00190064A019B13443833FB
:103AF00093F90030DB43DBB2DB09DBB2184602B0DE
:103B0000704700BF400A002084B0039002910192E8
:103B10008DF80330029B59B20E4A039B134438338D
:103B20000A461A700B49029B019A41F823209DF81E
:103B3000033083F00103DBB2002B08D0029B083B6B
:103B4000039A51B2034A13440A4683F8582000BF2F
:103B500004B07047400A002082B00190044A019BE3
:103B600013443833FF221A7000BF02B0704700BF01
:103B7000400A002082B00190044A019B134438336C
:103B800093F90030184602B0704700BF400A002089
:103B900082B00190034A019B52F82330184602B0CC
:103BA000704700BF400A002000B589B00390029121
:103BB00013468DF80730FF238DF81F309DF807302E
:103BC000002B01D0002300E0082305939DF8073067
:103BD000002B01D0082300E00E230493059B0693DD
:103BE00014E00F4A069B52F82330B3F1FF3F0AD18D
:103BF0009DF80730029A06990398FFF785FF069B08
:103C00008DF81F3006E0069B01330693069A049B4D
:103C10009A42E6D39DF91F30184609B05DF804FBBF
:103C2000400A002082B003468DF807309DF8073027
:103C3000094A4FF0FF3142F823109DF80730072B57
:103C400007D99DF80730083B034A1344FF2283F845
:103C5000582000BF02B07047400A002000B583B072
:103C6000214B93F85E30002B03D008230093009B78
:103C700036E000238DF8073009E09DF8073018463C
:103C8000FFF76AFF9DF8073001338DF807309DF884
:103C900007301F2BF1D900238DF8073009E09DF87C
:103CA00007301846FFF7BEFF9DF8073001338DF847
:103CB00007309DF807300D2BF1D902210620FFF7C0
:103CC000B3FC4FF4BE70FFF7EEFC4FF00040FFF77F
:103CD00013FD054B012283F85E2000230093009B17
:103CE000184603B05DF804FB400A0020044B93F82B
:103CF0005E30002B14BF01230023DBB2184670474F
:103D0000400A002000B587B0039002910192039B06
:103D10001F2B04D92B4940F2F710FDF784FC002338
:103D200005930398FFF7DEFE0346002B02D008231D
:103D3000059341E0029BDB781A4601990398FFF74F
:103D400033FF03468DF813309DF91330B3F1FF3F75
:103D500030D0029B9B78002B03D00398FFF7A8FD7F
:103D600005E0029B5B7819460398FFF78CFD029BE8
:103D7000DB78002B08D09DF91300029B1B781A46B4
:103D80000399FFF7E7FC17E09DF91330083B0E4A53
:103D9000134493F95810029B1B789B015AB29DF96A
:103DA0001330083B0A4351B2074A13440A4683F8CA
:103DB000582001E004230593059B184607B05DF8E1
:103DC00004FB00BFEC800100400A002000B589B070
:103DD00001900B468DF80330019B1F2B04D93D4900
:103DE00040F22520FDF71FFC0198FFF77BFE0346FC
:103DF000002B04D1374940F22620FDF714FC01982E
:103E0000FFF75EFE0346002B2FD00198FFF7B2FEAE
:103E10000346083B304A134493F958308DF80F306D
:103E20009DF80F309B098DF80E309DF80E30032B56
:103E30000BD10198FFF786FD0346002B01D0032329
:103E400000E002238DF81F3008E09DF80E30012BB2
:103E500001D1022300E003238DF81F309DF81F30AD
:103E600019460198FFF740FD30E00198FFF70AFE80
:103E70000346002B2AD00198FFF77CFE03460693E9
:103E8000069B9BB240339BB29B00ADF81630069B5D
:103E90001846FFF749FCBDF816301846FFF703FC3B
:103EA0009DF80330002B11D00198FFF763FE034605
:103EB0001846FFF76DFE0490049B002B06D00122EC
:103EC000069B02FA03F31846FFF716FC00BF09B081
:103ED0005DF804FBEC800100400A002000B595B0BD
:103EE00000231093002303934FF48073ADF84C30FC
:103EF0000123129300230F9321E0BDF84C301846A4
:103F0000FFF7BCFB0346002B0ED01298FFF700FC16
:103F10000346002B08D0BDF84C301846FFF7C3FB12
:103F2000109A129B13431093129B5B001293BDF8DF
:103F30004C300433ADF84C300F9B01330F930F9B83
:103F4000072BDAD94FF4BE70FFF798FB0346002B1E
:103F50000DD04FF4BE70FFF7A6FB109B43F000435B
:103F6000109303AB1A4601210020FFF71FFD109BA1
:103F7000DBB2002B29D00123129300230F9321E001
:103F8000129A109B1340002B16D00F98FFF714FCC9
:103F90000D900F98FFF720FC03468DF833300F98F3
:103FA000FFF7F6FD0B900B9B002B05D09DF83320FF
:103FB0000B9B11460D989847129B5B0012930F9B29
:103FC00001330F930F9B072BDAD9109B002B80F244
:103FD000EE8000238DF84F300023029300231193CD
:103FE0000AE0119B9B0014AA13444FF0FF3243F8E0
:103FF0004C2C119B01331193119B002BF1D000230A
:104000008DF84F3000230F9378E06B4A0F9B1344D9
:10401000583393F900308DF82B309DF82B3023F076
:10402000C0030993644A0F9B1344583393F900303B
:10403000B3F1FF3F5FD001AB19460998FFF7EAFCE7
:104040000346002B57D09DF82B309B098DF8233069
:104050000998FFF78FFD03461846FFF799FD079073
:10406000079B002B03D19DF82330032B43D19DF8F0
:104070002330032B04D102AB19460998FFF7E2FC69
:104080000998FFF774FC03468DF81B3003AB194603
:104090000998FFF7BFFC0590059B002B03D09DF806
:1040A0001B30022B06D0059B002B24D19DF81B3022
:1040B000032B20D19DF82330032B13D19DF81B3007
:1040C000022B01D1032300E002238DF813309DF869
:1040D000133019460998FFF707FC9DF84F3001335C
:1040E0008DF84F30079B002B05D09DF82320079BB0
:1040F0001146099898470F9B01330F930F9B052B8F
:1041000083D99DF84F30002B4CD001238DF83B30E4
:104110006B461A4601210020FFF748FC002311934B
:1041200014E0119B9B0014AA134453F8502C119BCC
:104130009B0014A90B4453F8443C9A4203D000233B
:104140008DF83B3005E0119B01331193119B002B3F
:10415000E7D09DF83B30002B03D000238DF84F3083
:1041600020E0002311931AE0119B9B0014AA134432
:1041700053F8502C119B9B0014A90B4443F8442C7A
:10418000119B9B0014AA134453F8482C119B9B00CD
:1041900014A90B4443F84C2C119B01331193119B30
:1041A000002BE1D09DF84F30002B7FF428AF00BFEB
:1041B00015B05DF804FB00BF400A002084B00190F8
:1041C0000B46ADF80230BDF80230019A13440022CC
:1041D0001A60BDF80230019A13441B680393039BD5
:1041E00000BF04B0704782B001900B46ADF80230BA
:1041F000BDF80230019A13441B68002B14BF012341
:104200000023DBB2184602B0704782B001900091E3
:10421000019B009AC3F8042300BF02B0704782B02C
:1042200001900091019B009AC3F8082300BF02B0DF
:10423000704782B00190019B0122C3F8002500BFA6
:1042400002B0704784B00390029101920093039BE7
:10425000029AC3F80825039B019AC3F80C25039B17
:10426000009AC3F8102500BF04B0704782B00190D7
:104270000B468DF803309DF80320019BC3F81C25E5
:1042800000BF02B0704782B00190019BD3F818358F
:10429000DBB2184602B0704782B001900091009ADC
:1042A000019BC3F8242500BF02B0704784B0019081
:1042B0000B468DF8033013468DF802309DF802301E
:1042C000002B14BF01230023DBB203939DF80330BE
:1042D000032B10D0032B13DC012B02D0022B05D0B3
:1042E0000EE0039B43F0020303930AE0039B43F0B9
:1042F0000403039305E0039B43F00603039300E0EC
:1043000000BF019B039AC3F8542500BF04B0704757
:1043100000B583B00190019B1B681F2B04D9054990
:104320004FF4E870FDF77FF94FF0A043184603B053
:104330005DF804FB7C81010000B585B00190084662
:1043400011461A4603468DF803300B468DF80230AD
:1043500013468DF8013001AB1846FFF7D9FF0390E3
:104360009DF803209DF802305B001A439DF8013050
:104370009B001A439DF818301B0242EA03019DF886
:104380001C301B04019A1943039B02F5E07243F8A9
:10439000221000BF05B05DF804FB00B585B00390A6
:1043A000002301930023009300230122012103989D
:1043B000FFF7C2FF00BF05B05DF804FB00B585B094
:1043C00003900B468DF80B309DF80B3000220192C4
:1043D00000220092002200210398FFF7ADFF00BFEA
:1043E00005B05DF804FB00B585B0019001AB18463F
:1043F000FFF78EFF0390019B012202FA03F3194697
:10440000039800F018F800BF05B05DF804FB00B594
:1044100085B0019001AB1846FFF77AFF0390019B2E
:10442000012202FA03F31946039800F00EF800BFC8
:1044300005B05DF804FB82B001900091019B009AE9
:10444000C3F8082500BF02B0704782B00190009108
:10445000019B009AC3F80C2500BF02B07047000012
:1044600000B58DB00590049103920293049B002B3C
:1044700003D15F49A820FDF7D6F8059B5B791A4662
:104480001346DB0013449B005A4A13440B930B9BC7
:104490001B7F002B03D008230793079BA4E00B9BF3
:1044A000039A1A600B9B029A5A60049B1B7B012B98
:1044B00005D8049B1B781846FFF7A9FF04E0049B6E
:1044C0001B781846FFF78FFF049B1B7818460023C4
:1044D000019300230093002300220121FFF72CFF0A
:1044E000049B5B78FF2B09D0049B5B780A930A98A6
:1044F000FFF78DFF0A98FFF750FF02E04FF0FF3300
:104500000A93049B9B78FF2B07D0049B9B7809930D
:1045100001210998FFF752FF02E04FF0FF330993A2
:10452000049BDB78FF2B09D0049BDB781846FFF750
:104530005AFF049BDB781846FFF72FFF059B5B793A
:104540001946049BD8782B4A0B46DB000B449B0092
:1045500013441E3302461A70059B1B680893049B84
:104560001B781946099B0A9A0898FFF76BFE049B73
:104570009B6819460898FFF78FFE049B197B049BE4
:104580005B7B1A460898FFF791FE059B5B791946FD
:10459000049B5879174A0B46DB000B449B001344DD
:1045A0001F3302461A700B9B1B68002B03D004219B
:1045B0000898FFF72AFE0898FFF73BFE0B9B1B6845
:1045C000002B08D0059B93F90420049B1B79194606
:1045D0001046FFF729F80B9B00225A770B9B01220C
:1045E0001A7700230793079B18460DB05DF804FB6C
:1045F000D8810100A00A002000B589B00390029183
:10460000009313468DF80730029B0493009B06939A
:104610009DF807308DF814309DF828308DF81C3047
:1046200004AB00221946039800F00EF90346184621
:1046300009B05DF804FB00B583B00190019B9B7F3E
:10464000FF2B04D0019B9B7F1846FFF7CCFE019BFC
:1046500000225A77019B00221A72019B1B68019A63
:1046600002F10800019A52681146984700BF03B052
:104670005DF804FB00B585B0019000910198FFF74B
:1046800002FE03468DF80D30009B93F82020009B1E
:104690001B7E9A4209D2009B5B69009A92F8202007
:1046A00013449DF80D20D2B21A70009B93F820306D
:1046B0000133DAB2009B83F82020009B93F820306E
:1046C0009BB20133ADF80E30009B93F8213003F01C
:1046D0000403DBB2002B17D0009B1B7C9BB2BDF800
:1046E0000E209A4204D2BDF80E30DAB2009B1A7442
:1046F000009B1B7E9BB2BDF80E209A4204D2BDF8EF
:104700000E30DAB2009B1A76009B1B7C9BB2BDF880
:104710000E209A420BD2009BDA68BDF80E3013448B
:104720001B7819460198FFF7A1FD012322E0009BA9
:104730001B7E9BB2BDF80E209A4207D2009BDB7F06
:1047400019460198FFF792FD012313E0009B93F8AF
:104750002020009B1B7C9A4206D3009B93F82020CC
:10476000009B1B7E9A4201D2012300E0002303F04C
:104770000103DBB2184605B05DF804FB00B585B057
:10478000039002910192029B002283F820200421D1
:104790000398FFF744FD4FF484710398FFF70EFD73
:1047A000019B1B79002B03D0019B1B681B7801E048
:1047B000029BDB7F19460398FFF758FD019B1B798D
:1047C000012B08D9019B1B6801331B7819460398FC
:1047D000FFF74CFD09E0019B1B7B012B05D9029BD8
:1047E000DB7F19460398FFF741FD029B1B68002BF6
:1047F00004D004210398FFF708FD20E000BF4FF428
:1048000084710398FFF7EFFC034683F00103DBB2EA
:10481000002BF4D14FF484710398FFF7CFFC029979
:104820000398FFF727FF0346002BE7D1029B9B7FEE
:10483000FF2B04D0029B9B7F1846FFF7D4FD00BFDF
:1048400005B05DF804FB000010B586B0039002913E
:104850000192039B5B791A461346DB0013449B00CD
:104860003B4A13440593059B1B7F002B04D1394918
:1048700040F25720FCF7D7FE029B1B68002B08D1A3
:10488000029B1B79002B04D032494FF41670FCF7C1
:10489000CAFE029B9B68002B08D1029B1B7B002B4E
:1048A00004D02C4940F25920FCF7BDFE00230493AC
:1048B000059B5B7FDBB2002B03D011230493049B89
:1048C00042E0059B1B68002B07D0019B03F01403FB
:1048D000002B02D1059B01225A77059B029A03F116
:1048E0000C0413460FCB84E80F00059A92F8213090
:1048F0006FF3000382F82130059A92F821306FF3AC
:10490000410382F82130059A92F821306FF3820337
:1049100082F82130059B9B7FFF2B04D0059B9B7F5A
:104920001846FFF774FD019B002B05D0059B002264
:104930005A770623049306E0039B1B68029A0599A5
:104940001846FFF71BFF049B184606B010BD00BFBA
:10495000A00A0020D881010000B583B00190009129
:10496000009B1B68002B04D10D494FF43570FCF7F8
:104970005AFE4FF484710198FFF720FC00990198CA
:10498000FFF778FE034683F00103DBB2002B02D071
:104990000098FFF750FE00BF03B05DF804FB00BFB6
:1049A000D881010000B583B0044B019301990448FC
:1049B000FFF7D2FF00BF03B05DF804FBA00A0020A0
:1049C0000030004084B001900B46ADF80230BDF8D5
:1049D0000230019A134400221A60BDF80230019A95
:1049E00013441B680393039B00BF04B0704782B05D
:1049F00001900B46ADF80230BDF80230019A134425
:104A00001B68002B14BF01230023DBB2184602B041
:104A1000704782B001900091019BD3F80423009B62
:104A20001340002B14BF01230023DBB2184602B051
:104A3000704782B001900091019B009AC3F808234F
:104A400000BF02B0704784B00190019BD3F880345E
:104A50000393019B039AC3F88024039B184604B078
:104A6000704782B00190019BD3F81835DBB218462D
:104A700002B0704782B001900B468DF803309DF86C
:104A80000320019BC3F81C2500BF02B0704782B011
:104A900001900B468DF803309DF80330019A1344C2
:104AA00001221A6000BF02B0704784B001900B462B
:104AB000ADF80230BDF80230019A134400221A60AA
:104AC000BDF80230019A13441B680393039B00BF97
:104AD00004B0704782B001900B46ADF80230BDF8CB
:104AE0000230019A13441B68002B14BF01230023DA
:104AF000DBB2184602B0704782B001900091019B72
:104B0000D3F80022009BDB431A40019BC3F800222C
:104B100000BF02B0704784B00190019BD3F880348D
:104B20000393019B039AC3F88024039B184604B0A7
:104B3000704782B00190019BD3F84C35184602B003
:104B4000704782B00190019BD3F83C35184602B003
:104B5000704700B585B0019000914FF48E710198B7
:104B6000FFF730FF009B9B68009A928A92B2134431
:104B70001B788DF80F30009B9B8A9BB201339AB251
:104B8000009B9A829DF80F3019460198FFF772FF3B
:104B900000BF05B05DF804FB10B582B00190009134
:104BA000009BDB7D002B08D14FF484710198FFF747
:104BB00009FF0198FFF755FF16E04FF48471019843
:104BC000FFF700FF009BDB68009A527ED2B29C1870
:104BD0000198FFF746FF03462370009B5B7EDBB224
:104BE0000133DAB2009B5A7602B010BD00B589B02D
:104BF00003900B4601928DF80B3001238DF8103095
:104C00009DF80B308DF81830019B0593039B5B6872
:104C1000039A116804AA1046984700BF09B05DF8CE
:104C200004FB00B587B001900B468DF803300023DC
:104C30008DF808309DF803308DF81030019B9B688B
:104C40000393019B00229A75019B5B68019A11688E
:104C500002AA1046984700BF07B05DF804FB00B5F4
:104C600089B0019000914FF400710198FFF7D1FED7
:104C70000346002B39D04FF492710198FFF7B7FE2D
:104C80000346002B31D04FF492710198FFF79AFE42
:104C90004FF401710198FFF7CCFE009B9B7E83F0DF
:104CA0000103DBB2002B03D004210198FFF7EFFED4
:104CB00002238DF808300198FFF7C5FE03460593DF
:104CC000009BDB7D8DF81030009BDB680393009B1D
:104CD0000022DA75009B00221A76009B5B68009A1E
:104CE000116802AA1046984756E004210198FFF780
:104CF00090FE0346002B4FD04FF484710198FFF7CC
:104D000076FE0346002B47D000990198FFF744FF39
:104D1000009BDA7D009B5B7EDBB29A423CD1009B1C
:104D20001B7E002B1CD0009BDB680793009B5B7EE7
:104D30008DF81B30009B1A7E009BDA75009B1A6968
:104D4000009BDA60009B00221A76009B00225A76B4
:104D50009DF81B30079A19460098FFF747FF1BE0A4
:104D6000009B9B7E83F00103DBB2002B03D0042168
:104D70000198FFF78CFE4FF401710198FFF759FE7F
:104D8000009B0022DA75009B5B7ED9B2009BDB683A
:104D90001A460098FFF72AFF4FF48E710198FFF72B
:104DA00026FE0346002B1BD0009B9B8A9AB2009BD9
:104DB0009B7D9BB29A4204D200990198FFF7C9FEED
:104DC0000EE04FF48E710198FFF7FCFD009B9B7D78
:104DD000002B05D0009B9B7D19460098FFF721FF13
:104DE0004FF4A2710198FFF702FE0346002B1CD07E
:104DF0004FF4A2710198FFF7E5FD009B9B7E002B0D
:104E000003D000210198FFF742FE009BDB7D002BC1
:104E10000BD0009B0022DA75009B5B7ED9B2009B11
:104E2000DB681A460098FFF7E1FE00BF09B05DF8A5
:104E300004FB00B589B0019000914FF49271019884
:104E4000FFF748FE0346002B24D04FF492710198DF
:104E5000FFF72BFE02238DF808300198FFF75BFE69
:104E6000034605930198FFF76CFE0346DBB28DF80D
:104E70001030009BDB680393009B0022DA75009BD7
:104E800000221A76009B5B68009A116802AA1046FD
:104E9000984741E04FF488710198FFF71BFE0346E5
:104EA000002B39D04FF488710198FFF7FEFD01986F
:104EB000FFF747FE03468DF81F30009BDB7D9DF812
:104EC0001F209A4228D1009B1B7E002B19D0009BEB
:104ED000DB68069320210198FFF70EFE009B1A7EE7
:104EE000009BDA75009B1A69009BDA60009B002228
:104EF0001A769DF81F30069A19460098FFF776FE3D
:104F00000AE0009B0022DA75009BDA689DF81F30EA
:104F100019460098FFF76AFE4FF4A2710198FFF757
:104F2000D9FD0346002B16D04FF4A2710198FFF76C
:104F3000BCFD009BDB7D002B0DD0009B0022DA75B1
:104F40000198FFF7FEFD0346D9B2009BDB681A46C5
:104F50000098FFF74BFE4FF490710198FFF7BAFDF0
:104F60000346002B11D04FF490710198FFF79DFD7F
:104F7000009B9B7D002B08D00198FFF7DAFD0346CC
:104F8000DBB219460098FFF74CFE00BF09B05DF890
:104F900004FB000008B5074B1B7F002B04D005491C
:104FA0000548FFF746FF03E002490348FFF757FEB5
:104FB00000BF08BDC40A00200020004082B001905C
:104FC0004FF08042019BC2F8043300BF02B070472B
:104FD00082B001904FF08042019BC2F8083300BFBD
:104FE00002B0704782B003468DF807309DF8073055
:104FF00003F1804301221A6000BF02B0704784B001
:105000000346ADF80630BDF8063003F180430022B8
:105010001A60BDF8063003F180431B680393039BBD
:1050200000BF04B0704782B00346ADF80630BDF84B
:10503000063003F180431B68002B14BF01230023BB
:10504000DBB2184602B0704782B003468DF80730D5
:105050009DF807304FF0804203F00303C2F8183583
:1050600000BF02B07047000082B003468DF80730E1
:105070000A4A9DF907305B0952F823209DF8073052
:1050800003F01F03012101FA03F31340002B14BFA7
:1050900001230023DBB2184602B0704700E100E0B4
:1050A00008B50020FFF7E0FF034683F00103DBB201
:1050B000002B03D007210020FEF7B6FA00BF08BD81
:1050C00008B54FF48270FFF79AFF0220FFF776FFD2
:1050D0000820FFF787FF00BF08BD000000B583B0C0
:1050E000002301930F4B1B78002B02D085230193E3
:1050F00013E00C4B00229A600A4B00225A60094BC5
:1051000000221A61074B0022DA60FFF7C9FF012075
:10511000FFF79AFF034B01221A70019B184603B058
:105120005DF804FBE40A002084B001900091019B2B
:105130001B68039306E0039A009B9A420DD0039BE1
:105140001B680393039B002BF5D1019B1A68009BFE
:105150001A60019B009A1A6000E000BF04B070471B
:1051600084B00190019B1B680393039B002B03D029
:10517000039B1A68019B1A60039B184604B0704792
:1051800000B583B00190224B1B78002B03D121493D
:10519000FB20FCF748FA1E4B9B78DBB2002B12D0A9
:1051A000019B002B03D0019B5B68012098470020E6
:1051B000FCF7F2F9164BDB680133154AD360002087
:1051C000FCF7FEF917E00020FCF7E6F9019B002B45
:1051D00003D001991048FFF7A7FF0D4BDB68002BA8
:1051E00001D1FFF76DFF0A4BDB680133084AD3603A
:1051F0000020FCF7E5F9064BDB68002B04D10549DC
:1052000040F21710FCF70FFA00BF03B05DF804FB83
:10521000E40A00205C830100F40A002000B585B098
:1052200003468DF807309DF80730002B02D10C4B58
:10523000039301E00B4B03930398FFF791FF029058
:10524000029B002B06D0029B5B689DF8072010464E
:105250009847F1E700BF00BF05B05DF804FB00BF51
:10526000EC0A0020F40A002008B54FF48070FFF724
:10527000DAFE0346002B0CD04FF48070FFF7BFFE20
:105280000120FFF7A5FE0E4B01225A700020FFF708
:10529000C5FF4FF48270FFF7C6FE0346002B0CD00B
:1052A0004FF48270FFF7ABFE0220FFF791FE044B34
:1052B00001229A700120FFF7B1FF00BF08BD00BFB7
:1052C000E40A002000B583B01F4B0193019B032229
:1052D0001A61019B03225A61019B1C4A9A61019B3E
:1052E0001B4ADA61019B4FF400621A62019B0022A3
:1052F0009A62019B00225A62019B0022DA62019BA2
:10530000124A1A66019B134A5A66019B10229A663A
:10531000019B00221A67019B0022DA66019B002292
:105320005A67019B07330C49184611F0D5F9019BC8
:105330000A49184611F0D0F9019B20229A7100BF4A
:1053400003B05DF804FB00BFF80A0020E883010009
:10535000A00B0020A0130020F4830100F8830100BB
:1053600000B589B003900291019200230693039B3C
:10537000DB680593039B1B690493049A059B9A427F
:1053800005D9049A059BD31A013B079307E0039BB9
:105390009A680499059BCB1A1344013B0793039B1E
:1053A0009A68059BD31A079A934228BF134607931E
:1053B000079A019B934228BF13460793039B5A68A1
:1053C000059B1344079A0299184611F029F9069A89
:1053D000079B13440693029A079B13440293019A76
:1053E000079BD31A0193059A079B13440593039BCC
:1053F0009B68059A9A4201D100230593039B059A65
:10540000DA60019B002BB5D1069B184609B05DF808
:1054100004FB00B589B0039002910192039BDB6805
:105420000793039B9A68079BD31A0693069A019BDE
:105430009A420ED9039B5A68079B1344019A02991A
:10544000184611F0EDF8079A019B1A44039BDA60A5
:105450001AE0069B0593039B5A68079B1344059A21
:105460000299184611F0DCF8019A069BD31A0593AD
:10547000039B5868029A069B1344059A194611F03B
:10548000CFF8039B059ADA6000BF09B05DF804FB12
:1054900086B00190019B1B690493019BDB68039319
:1054A000049A039B9A4208D8019B9A68039BD21ADC
:1054B000049B1344013B059304E0049A039BD31A15
:1054C000013B0593059B184606B0704700B589B0AF
:1054D000039002910192029B0693039B5A1C134670
:1054E0005B001344DB00204A13440593059B5B6972
:1054F000022B29D0022B2ED8002B02D0012B13D047
:1055000029E00598FFF7C4FF0490049A019B9A4292
:1055100002D20023079321E0019B0793019A069989
:105520000598FFF776FF19E00598FFF7B1FF0490A3
:10553000019A049B934228BF13460793079A069942
:105540000598FFF766FF09E0019A06990598FFF7AD
:1055500007FF079002E00023079300BF079B184650
:1055600009B05DF804FB00BFF80A002008B5FFF79A
:10557000A9FE00BF08BD0000BFF34F8F00BF074B5F
:10558000DB6803F4E0620549054B1343CB60BFF3CE
:105590004F8F00BF00BF00BFFCE700BF00ED00E081
:1055A0000400FA05024B034A1A6000BF704700BFAF
:1055B000180100200090D00308B500F05DF9034603
:1055C000002B06D09B4B1B681B0A9B4A03F01F0352
:1055D000136000F07DF90346002B02D0974B984AE8
:1055E0001A6000F091F90346002B06D0954B1B681A
:1055F0005B0B954A03F00703136000F0B1F9034613
:10560000002B05D0914BDB68904A23F08073D36068
:1056100000F0C2F90346002B0ED04FF08043002269
:10562000C3F80C214FF080430022C3F810214FF043
:1056300080430022C3F8382500F0DAF90346002B36
:1056400002D0834B03221A6000F0EEF90346002BD0
:105650000BD0804B05221A607F4B01221A607F4BD2
:1056600000221A607E4B3F221A6000F0F9F90346CF
:10567000002B76D04FF080537A4AD3F80434C2F826
:1056800020354FF08053774AD3F80834C2F82435D8
:105690004FF08053734AD3F80C34C2F828354FF0DA
:1056A0008053704AD3F81034C2F82C354FF0805331
:1056B0006C4AD3F81434C2F830354FF08053694A3D
:1056C000D3F81834C2F834354FF08053654AD3F814
:1056D0001C34C2F840354FF08053624AD3F820346E
:1056E000C2F844354FF080535E4AD3F82434C2F8F0
:1056F00048354FF080535B4AD3F82834C2F84C3514
:105700004FF08053574AD3F82C34C2F850354FF03D
:105710008053544AD3F83034C2F854354FF0805394
:10572000504AD3F83434C2F860354FF080534D4AB4
:10573000D3F83834C2F864354FF08053494AD3F86F
:105740003C34C2F868354FF08053464AD3F84034B1
:10575000C2F86C354FF08053424AD3F84434C2F853
:10576000703500F099F90346002B05D03E4B1B68BD
:105770003E4A03F04F03136000F0BAF90346002BD2
:105780000DD04FF08043D3F8003403F00103002B19
:1057900005D04FF080436FF00102C3F80024344B72
:1057A000D3F88830324A43F47003C2F88830BFF32C
:1057B0004F8F00BFBFF36F8F00BF4FF01023D3F8A0
:1057C0000032002B05DB4FF01023D3F80432002BFE
:1057D0002BDA284B0122C3F8042500BF254BD3F850
:1057E0000034002BFAD04FF010231522C3F800220A
:1057F00000BF204BD3F80034002BFAD04FF0102319
:105800001522C3F8042200BF1A4BD3F80034002B32
:10581000FAD0184B0022C3F8042500BF154BD3F86B
:105820000034002BFAD0FFF7A7FEFFF7BBFE00BF46
:1058300008BD00BF240300104035014074C007407C
:105840000DF0ADBA440200103C050040F0ED00E060
:10585000A0050040105600408856004018560040F1
:105860001456004000C0004058020010E40E0040F2
:1058700000ED00E000E00140124B1B68DBB2062B9C
:105880001DD1114B1B6803F00F03002B17D10F4BD9
:105890001B6803F0F003302B01D1012310E00B4B08
:1058A0001B6803F0F003402B01D1012308E0074BF4
:1058B0001B6803F0F003502B01D1012300E000230B
:1058C00018467047E00F00F0E40F00F0E80F00F01A
:1058D0000A4B1B68DBB2062B0DD1094B1B6803F08A
:1058E0000F03002B07D1074B1B6803F0F003302B8D
:1058F00001D1012300E0002318467047E00F00F0BB
:10590000E40F00F0E80F00F0124B1B68DBB2062B2F
:105910001DD1114B1B6803F00F03002B17D10F4B48
:105920001B6803F0F003302B01D1012310E00B4B77
:105930001B6803F0F003402B01D1012308E0074B63
:105940001B6803F0F003502B01D1012300E000237A
:1059500018467047E00F00F0E40F00F0E80F00F089
:105960000A4B1B68DBB2062B0DD1094B1B6803F0F9
:105970000F03002B07D1074B1B6803F0F003302BFC
:1059800001D1012300E0002318467047E00F00F02A
:10599000E40F00F0E80F00F0124B1B68DBB2062B9F
:1059A0001DD1114B1B6803F00F03002B17D10F4BB8
:1059B0001B6803F0F003302B01D1012310E00B4BE7
:1059C0001B6803F0F003402B01D1012308E0074BD3
:1059D0001B6803F0F003502B01D1012300E00023EA
:1059E00018467047E00F00F0E40F00F0E80F00F0F9
:1059F0000A4B1B68DBB2062B0DD1094B1B6803F069
:105A00000F03002B07D1074B1B6803F0F003302B6B
:105A100001D1012300E0002318467047E00F00F099
:105A2000E40F00F0E80F00F00A4B1B68DBB2062B16
:105A30000DD1094B1B6803F00F03002B07D1074B57
:105A40001B6803F0F003302B01D1012300E0002399
:105A500018467047E00F00F0E40F00F0E80F00F088
:105A60000A4B1B68DBB2062B0DD1094B1B6803F0F8
:105A70000F03002B07D1074B1B6803F0F003502BDB
:105A800001D1012300E0002318467047E00F00F029
:105A9000E40F00F0E80F00F0124B1B68DBB2062B9E
:105AA0001DD1114B1B6803F00F03002B17D10F4BB7
:105AB0001B6803F0F003302B01D1012310E00B4BE6
:105AC0001B6803F0F003402B01D1012308E0074BD2
:105AD0001B6803F0F003502B01D1012300E00023E9
